{
  "_format": "hh-sol-artifact-1",
  "contractName": "DestoreToken",
  "sourceName": "contracts/DestoreToken.sol",
  "abi": [
    {
      "inputs": [],
      "stateMutability": "nonpayable",
      "type": "constructor"
    },
    {
      "inputs": [
        {
          "internalType": "address",
          "name": "spender",
          "type": "address"
        },
        {
          "internalType": "uint256",
          "name": "allowance",
          "type": "uint256"
        },
        {
          "internalType": "uint256",
          "name": "needed",
          "type": "uint256"
        }
      ],
      "name": "ERC20InsufficientAllowance",
      "type": "error"
    },
    {
      "inputs": [
        {
          "internalType": "address",
          "name": "sender",
          "type": "address"
        },
        {
          "internalType": "uint256",
          "name": "balance",
          "type": "uint256"
        },
        {
          "internalType": "uint256",
          "name": "needed",
          "type": "uint256"
        }
      ],
      "name": "ERC20InsufficientBalance",
      "type": "error"
    },
    {
      "inputs": [
        {
          "internalType": "address",
          "name": "approver",
          "type": "address"
        }
      ],
      "name": "ERC20InvalidApprover",
      "type": "error"
    },
    {
      "inputs": [
        {
          "internalType": "address",
          "name": "receiver",
          "type": "address"
        }
      ],
      "name": "ERC20InvalidReceiver",
      "type": "error"
    },
    {
      "inputs": [
        {
          "internalType": "address",
          "name": "sender",
          "type": "address"
        }
      ],
      "name": "ERC20InvalidSender",
      "type": "error"
    },
    {
      "inputs": [
        {
          "internalType": "address",
          "name": "spender",
          "type": "address"
        }
      ],
      "name": "ERC20InvalidSpender",
      "type": "error"
    },
    {
      "inputs": [
        {
          "internalType": "address",
          "name": "owner",
          "type": "address"
        }
      ],
      "name": "OwnableInvalidOwner",
      "type": "error"
    },
    {
      "inputs": [
        {
          "internalType": "address",
          "name": "account",
          "type": "address"
        }
      ],
      "name": "OwnableUnauthorizedAccount",
      "type": "error"
    },
    {
      "inputs": [],
      "name": "ReentrancyGuardReentrantCall",
      "type": "error"
    },
    {
      "anonymous": false,
      "inputs": [
        {
          "indexed": true,
          "internalType": "address",
          "name": "owner",
          "type": "address"
        },
        {
          "indexed": true,
          "internalType": "address",
          "name": "spender",
          "type": "address"
        },
        {
          "indexed": false,
          "internalType": "uint256",
          "name": "value",
          "type": "uint256"
        }
      ],
      "name": "Approval",
      "type": "event"
    },
    {
      "anonymous": false,
      "inputs": [
        {
          "indexed": true,
          "internalType": "address",
          "name": "previousOwner",
          "type": "address"
        },
        {
          "indexed": true,
          "internalType": "address",
          "name": "newOwner",
          "type": "address"
        }
      ],
      "name": "OwnershipTransferred",
      "type": "event"
    },
    {
      "anonymous": false,
      "inputs": [
        {
          "indexed": true,
          "internalType": "address",
          "name": "provider",
          "type": "address"
        },
        {
          "indexed": false,
          "internalType": "uint256",
          "name": "amount",
          "type": "uint256"
        }
      ],
      "name": "RewardsClaimed",
      "type": "event"
    },
    {
      "anonymous": false,
      "inputs": [
        {
          "indexed": true,
          "internalType": "address",
          "name": "provider",
          "type": "address"
        },
        {
          "indexed": false,
          "internalType": "uint256",
          "name": "amount",
          "type": "uint256"
        }
      ],
      "name": "StorageContributed",
      "type": "event"
    },
    {
      "anonymous": false,
      "inputs": [
        {
          "indexed": true,
          "internalType": "address",
          "name": "provider",
          "type": "address"
        },
        {
          "indexed": false,
          "internalType": "uint256",
          "name": "amount",
          "type": "uint256"
        }
      ],
      "name": "StorageRemoved",
      "type": "event"
    },
    {
      "anonymous": false,
      "inputs": [
        {
          "indexed": true,
          "internalType": "address",
          "name": "from",
          "type": "address"
        },
        {
          "indexed": true,
          "internalType": "address",
          "name": "to",
          "type": "address"
        },
        {
          "indexed": false,
          "internalType": "uint256",
          "name": "value",
          "type": "uint256"
        }
      ],
      "name": "Transfer",
      "type": "event"
    },
    {
      "inputs": [],
      "name": "MAX_STORAGE_CONTRIBUTION",
      "outputs": [
        {
          "internalType": "uint256",
          "name": "",
          "type": "uint256"
        }
      ],
      "stateMutability": "view",
      "type": "function"
    },
    {
      "inputs": [],
      "name": "MIN_STORAGE_CONTRIBUTION",
      "outputs": [
        {
          "internalType": "uint256",
          "name": "",
          "type": "uint256"
        }
      ],
      "stateMutability": "view",
      "type": "function"
    },
    {
      "inputs": [],
      "name": "STORAGE_REWARD_RATE",
      "outputs": [
        {
          "internalType": "uint256",
          "name": "",
          "type": "uint256"
        }
      ],
      "stateMutability": "view",
      "type": "function"
    },
    {
      "inputs": [
        {
          "internalType": "address",
          "name": "owner",
          "type": "address"
        },
        {
          "internalType": "address",
          "name": "spender",
          "type": "address"
        }
      ],
      "name": "allowance",
      "outputs": [
        {
          "internalType": "uint256",
          "name": "",
          "type": "uint256"
        }
      ],
      "stateMutability": "view",
      "type": "function"
    },
    {
      "inputs": [
        {
          "internalType": "address",
          "name": "spender",
          "type": "address"
        },
        {
          "internalType": "uint256",
          "name": "value",
          "type": "uint256"
        }
      ],
      "name": "approve",
      "outputs": [
        {
          "internalType": "bool",
          "name": "",
          "type": "bool"
        }
      ],
      "stateMutability": "nonpayable",
      "type": "function"
    },
    {
      "inputs": [
        {
          "internalType": "address",
          "name": "account",
          "type": "address"
        }
      ],
      "name": "balanceOf",
      "outputs": [
        {
          "internalType": "uint256",
          "name": "",
          "type": "uint256"
        }
      ],
      "stateMutability": "view",
      "type": "function"
    },
    {
      "inputs": [],
      "name": "claimRewards",
      "outputs": [],
      "stateMutability": "nonpayable",
      "type": "function"
    },
    {
      "inputs": [
        {
          "internalType": "uint256",
          "name": "storageAmount",
          "type": "uint256"
        }
      ],
      "name": "contributeStorage",
      "outputs": [],
      "stateMutability": "nonpayable",
      "type": "function"
    },
    {
      "inputs": [],
      "name": "decimals",
      "outputs": [
        {
          "internalType": "uint8",
          "name": "",
          "type": "uint8"
        }
      ],
      "stateMutability": "view",
      "type": "function"
    },
    {
      "inputs": [
        {
          "internalType": "address",
          "name": "provider",
          "type": "address"
        }
      ],
      "name": "getPendingRewards",
      "outputs": [
        {
          "internalType": "uint256",
          "name": "",
          "type": "uint256"
        }
      ],
      "stateMutability": "view",
      "type": "function"
    },
    {
      "inputs": [],
      "name": "getTotalNetworkStorage",
      "outputs": [
        {
          "internalType": "uint256",
          "name": "",
          "type": "uint256"
        }
      ],
      "stateMutability": "pure",
      "type": "function"
    },
    {
      "inputs": [
        {
          "internalType": "address",
          "name": "",
          "type": "address"
        }
      ],
      "name": "isStorageProvider",
      "outputs": [
        {
          "internalType": "bool",
          "name": "",
          "type": "bool"
        }
      ],
      "stateMutability": "view",
      "type": "function"
    },
    {
      "inputs": [
        {
          "internalType": "address",
          "name": "",
          "type": "address"
        }
      ],
      "name": "lastRewardClaim",
      "outputs": [
        {
          "internalType": "uint256",
          "name": "",
          "type": "uint256"
        }
      ],
      "stateMutability": "view",
      "type": "function"
    },
    {
      "inputs": [],
      "name": "name",
      "outputs": [
        {
          "internalType": "string",
          "name": "",
          "type": "string"
        }
      ],
      "stateMutability": "view",
      "type": "function"
    },
    {
      "inputs": [],
      "name": "owner",
      "outputs": [
        {
          "internalType": "address",
          "name": "",
          "type": "address"
        }
      ],
      "stateMutability": "view",
      "type": "function"
    },
    {
      "inputs": [
        {
          "internalType": "uint256",
          "name": "storageAmount",
          "type": "uint256"
        }
      ],
      "name": "removeStorage",
      "outputs": [],
      "stateMutability": "nonpayable",
      "type": "function"
    },
    {
      "inputs": [],
      "name": "renounceOwnership",
      "outputs": [],
      "stateMutability": "nonpayable",
      "type": "function"
    },
    {
      "inputs": [
        {
          "internalType": "address",
          "name": "",
          "type": "address"
        }
      ],
      "name": "storageContributed",
      "outputs": [
        {
          "internalType": "uint256",
          "name": "",
          "type": "uint256"
        }
      ],
      "stateMutability": "view",
      "type": "function"
    },
    {
      "inputs": [],
      "name": "symbol",
      "outputs": [
        {
          "internalType": "string",
          "name": "",
          "type": "string"
        }
      ],
      "stateMutability": "view",
      "type": "function"
    },
    {
      "inputs": [],
      "name": "totalSupply",
      "outputs": [
        {
          "internalType": "uint256",
          "name": "",
          "type": "uint256"
        }
      ],
      "stateMutability": "view",
      "type": "function"
    },
    {
      "inputs": [
        {
          "internalType": "address",
          "name": "to",
          "type": "address"
        },
        {
          "internalType": "uint256",
          "name": "value",
          "type": "uint256"
        }
      ],
      "name": "transfer",
      "outputs": [
        {
          "internalType": "bool",
          "name": "",
          "type": "bool"
        }
      ],
      "stateMutability": "nonpayable",
      "type": "function"
    },
    {
      "inputs": [
        {
          "internalType": "address",
          "name": "from",
          "type": "address"
        },
        {
          "internalType": "address",
          "name": "to",
          "type": "address"
        },
        {
          "internalType": "uint256",
          "name": "value",
          "type": "uint256"
        }
      ],
      "name": "transferFrom",
      "outputs": [
        {
          "internalType": "bool",
          "name": "",
          "type": "bool"
        }
      ],
      "stateMutability": "nonpayable",
      "type": "function"
    },
    {
      "inputs": [
        {
          "internalType": "address",
          "name": "newOwner",
          "type": "address"
        }
      ],
      "name": "transferOwnership",
      "outputs": [],
      "stateMutability": "nonpayable",
      "type": "function"
    }
  ],
  "bytecode": "0x60806040523480156200001157600080fd5b50336040518060400160405280600d81526020016c2232b9ba37b932902a37b5b2b760991b81525060405180604001604052806007815260200166444553544f524560c81b81525081600390816200006a919062000344565b50600462000079828262000344565b5050506001600160a01b038116620000ac57604051631e4fbdf760e01b8152600060048201526024015b60405180910390fd5b620000b781620000da565b506001600655620000d4336a52b7d2dcc80cd2e40000006200012c565b62000438565b600580546001600160a01b038381166001600160a01b0319831681179093556040519116919082907f8be0079c531659141344cd1fd0a4f28419497f9722a3daafe3b4186f6b6457e090600090a35050565b6001600160a01b038216620001585760405163ec442f0560e01b815260006004820152602401620000a3565b62000166600083836200016a565b5050565b6001600160a01b038316620001995780600260008282546200018d919062000410565b909155506200020d9050565b6001600160a01b03831660009081526020819052604090205481811015620001ee5760405163391434e360e21b81526001600160a01b03851660048201526024810182905260448101839052606401620000a3565b6001600160a01b03841660009081526020819052604090209082900390555b6001600160a01b0382166200022b576002805482900390556200024a565b6001600160a01b03821660009081526020819052604090208054820190555b816001600160a01b0316836001600160a01b03167fddf252ad1be2c89b69c2b068fc378daa952ba7f163c4a11628f55a4df523b3ef836040516200029091815260200190565b60405180910390a3505050565b634e487b7160e01b600052604160045260246000fd5b600181811c90821680620002c857607f821691505b602082108103620002e957634e487b7160e01b600052602260045260246000fd5b50919050565b601f8211156200033f576000816000526020600020601f850160051c810160208610156200031a5750805b601f850160051c820191505b818110156200033b5782815560010162000326565b5050505b505050565b81516001600160401b038111156200036057620003606200029d565b6200037881620003718454620002b3565b84620002ef565b602080601f831160018114620003b05760008415620003975750858301515b600019600386901b1c1916600185901b1785556200033b565b600085815260208120601f198616915b82811015620003e157888601518255948401946001909101908401620003c0565b5085821015620004005787850151600019600388901b60f8161c191681555b5050505050600190811b01905550565b808201808211156200043257634e487b7160e01b600052601160045260246000fd5b92915050565b610fe080620004486000396000f3fe608060405234801561001057600080fd5b506004361061014d5760003560e01c806370a08231116100c3578063ae9840911161007c578063ae9840911461029c578063c7ec64a5146102af578063d8ad5231146102cf578063dd62ed3e146102ef578063f2fde38b14610328578063f6ed20171461033b57600080fd5b806370a0823114610226578063715018a61461024f57806377f6af2e146102575780638da5cb5b1461026657806395d89b4114610281578063a9059cbb1461028957600080fd5b806323b872dd1161011557806323b872dd146101dd578063313ce567146101f0578063372500ab146101ff5780633d84f7ed146102075780633ebd0ef01461020e5780635a0861b41461021a57600080fd5b806306fdde0314610152578063095ea7b31461017057806316c703041461019357806318160ddd146101b657806319e22247146101c8575b600080fd5b61015a61034e565b6040516101679190610dbc565b60405180910390f35b61018361017e366004610e27565b6103e0565b6040519015158152602001610167565b6101836101a1366004610e51565b60096020526000908152604090205460ff1681565b6002545b604051908152602001610167565b6101db6101d6366004610e73565b6103fa565b005b6101836101eb366004610e8c565b6105e1565b60405160128152602001610167565b6101db610605565b60006101ba565b6101ba64e8d4a5100081565b6101ba6402540be40081565b6101ba610234366004610e51565b6001600160a01b031660009081526020819052604090205490565b6101db61079d565b6101ba670de0b6b3a764000081565b6005546040516001600160a01b039091168152602001610167565b61015a6107af565b610183610297366004610e27565b6107be565b6101db6102aa366004610e73565b6107cc565b6101ba6102bd366004610e51565b60076020526000908152604090205481565b6101ba6102dd366004610e51565b60086020526000908152604090205481565b6101ba6102fd366004610ec8565b6001600160a01b03918216600090815260016020908152604080832093909416825291909152205490565b6101db610336366004610e51565b6108cc565b6101ba610349366004610e51565b610907565b60606003805461035d90610efb565b80601f016020809104026020016040519081016040528092919081815260200182805461038990610efb565b80156103d65780601f106103ab576101008083540402835291602001916103d6565b820191906000526020600020905b8154815290600101906020018083116103b957829003601f168201915b5050505050905090565b6000336103ee8185856109ea565b60019150505b92915050565b6104026109fc565b6402540be4008110156104545760405162461bcd60e51b8152602060048201526015602482015274135a5b9a5b5d5b480c4c11d0881c995c5d5a5c9959605a1b60448201526064015b60405180910390fd5b64e8d4a5100081111561049f5760405162461bcd60e51b815260206004820152601360248201527213585e1a5b5d5b480c551088185b1b1bddd959606a1b604482015260640161044b565b3360009081526009602052604090205460ff166104d157336000908152600960205260409020805460ff191660011790555b33600090815260076020526040902054156104ee576104ee610605565b336000908152600760205260408120805483929061050d908490610f4b565b90915550503360009081526008602052604081204290556402540be400821080159061053e57506404a817c8008211155b156105525750678ac7230489e8000061058e565b6404a817c80082111561058e57600261056f633b9aca0084610f5e565b61058190670de0b6b3a7640000610f80565b61058b9190610f5e565b90505b801561059e5761059e3382610a26565b60405182815233907f8cf0804967f554acd63fa5e7a66e5760637cca8f9b0d61e2f31e554d1ecac28d9060200160405180910390a2506105de6001600655565b50565b6000336105ef858285610a60565b6105fa858585610adf565b506001949350505050565b61060d6109fc565b3360009081526009602052604090205460ff166106655760405162461bcd60e51b81526020600482015260166024820152752737ba10309039ba37b930b3b290383937bb34b232b960511b604482015260640161044b565b336000908152600760205260409020546106ba5760405162461bcd60e51b8152602060048201526016602482015275139bc81cdd1bdc9859d94818dbdb9d1c9a589d5d195960521b604482015260640161044b565b336000908152600860205260408120546106d49042610f97565b905060006106e562278d0083610f5e565b9050801561078f573360009081526007602052604081205461070c90633b9aca0090610f5e565b9050600082610723670de0b6b3a764000084610f80565b61072d9190610f80565b9050801561078c5761073f3382610a26565b3360008181526008602052604090819020429055517ffc30cddea38e2bf4d6ea7d3f9ed3b6ad7f176419f4963bd81318067a4aee73fe906107839084815260200190565b60405180910390a25b50505b505061079b6001600655565b565b6107a5610b3e565b61079b6000610b6b565b60606004805461035d90610efb565b6000336103ee818585610adf565b6107d46109fc565b336000908152600760205260409020548111156108335760405162461bcd60e51b815260206004820181905260248201527f496e73756666696369656e742073746f7261676520636f6e7472696275746564604482015260640161044b565b61083b610605565b336000908152600760205260408120805483929061085a908490610f97565b909155505033600090815260076020526040812054900361088d57336000908152600960205260409020805460ff191690555b60405181815233907f6c373446ab8c568789ea9a535a699f3f27e30a346a35390981e14e7fd16e28b99060200160405180910390a26105de6001600655565b6108d4610b3e565b6001600160a01b0381166108fe57604051631e4fbdf760e01b81526000600482015260240161044b565b6105de81610b6b565b6001600160a01b03811660009081526009602052604081205460ff16158061094557506001600160a01b038216600090815260076020526040902054155b1561095257506000919050565b6001600160a01b0382166000908152600860205260408120546109759042610f97565b9050600061098662278d0083610f5e565b90508060000361099a575060009392505050565b6001600160a01b0384166000908152600760205260408120546109c290633b9aca0090610f5e565b9050816109d7670de0b6b3a764000083610f80565b6109e19190610f80565b95945050505050565b6109f78383836001610bbd565b505050565b600260065403610a1f57604051633ee5aeb560e01b815260040160405180910390fd5b6002600655565b6001600160a01b038216610a505760405163ec442f0560e01b81526000600482015260240161044b565b610a5c60008383610c92565b5050565b6001600160a01b03838116600090815260016020908152604080832093861683529290522054600019811015610ad95781811015610aca57604051637dc7a0d960e11b81526001600160a01b0384166004820152602481018290526044810183905260640161044b565b610ad984848484036000610bbd565b50505050565b6001600160a01b038316610b0957604051634b637e8f60e11b81526000600482015260240161044b565b6001600160a01b038216610b335760405163ec442f0560e01b81526000600482015260240161044b565b6109f7838383610c92565b6005546001600160a01b0316331461079b5760405163118cdaa760e01b815233600482015260240161044b565b600580546001600160a01b038381166001600160a01b0319831681179093556040519116919082907f8be0079c531659141344cd1fd0a4f28419497f9722a3daafe3b4186f6b6457e090600090a35050565b6001600160a01b038416610be75760405163e602df0560e01b81526000600482015260240161044b565b6001600160a01b038316610c1157604051634a1406b160e11b81526000600482015260240161044b565b6001600160a01b0380851660009081526001602090815260408083209387168352929052208290558015610ad957826001600160a01b0316846001600160a01b03167f8c5be1e5ebec7d5bd14f71427d1e84f3dd0314c0f7b2291e5b200ac8c7c3b92584604051610c8491815260200190565b60405180910390a350505050565b6001600160a01b038316610cbd578060026000828254610cb29190610f4b565b90915550610d2f9050565b6001600160a01b03831660009081526020819052604090205481811015610d105760405163391434e360e21b81526001600160a01b0385166004820152602481018290526044810183905260640161044b565b6001600160a01b03841660009081526020819052604090209082900390555b6001600160a01b038216610d4b57600280548290039055610d6a565b6001600160a01b03821660009081526020819052604090208054820190555b816001600160a01b0316836001600160a01b03167fddf252ad1be2c89b69c2b068fc378daa952ba7f163c4a11628f55a4df523b3ef83604051610daf91815260200190565b60405180910390a3505050565b60006020808352835180602085015260005b81811015610dea57858101830151858201604001528201610dce565b506000604082860101526040601f19601f8301168501019250505092915050565b80356001600160a01b0381168114610e2257600080fd5b919050565b60008060408385031215610e3a57600080fd5b610e4383610e0b565b946020939093013593505050565b600060208284031215610e6357600080fd5b610e6c82610e0b565b9392505050565b600060208284031215610e8557600080fd5b5035919050565b600080600060608486031215610ea157600080fd5b610eaa84610e0b565b9250610eb860208501610e0b565b9150604084013590509250925092565b60008060408385031215610edb57600080fd5b610ee483610e0b565b9150610ef260208401610e0b565b90509250929050565b600181811c90821680610f0f57607f821691505b602082108103610f2f57634e487b7160e01b600052602260045260246000fd5b50919050565b634e487b7160e01b600052601160045260246000fd5b808201808211156103f4576103f4610f35565b600082610f7b57634e487b7160e01b600052601260045260246000fd5b500490565b80820281158282048414176103f4576103f4610f35565b818103818111156103f4576103f4610f3556fea26469706673582212205abd873186056f6a468781df5a18568cf56c78fde401c3108983dbf8a3a46a4c64736f6c63430008180033",
  "linkReferences": {},
  "deployedLinkReferences": {}
}