{
  "_format": "hh-sol-artifact-1",
  "contractName": "StorageMarketplace",
  "sourceName": "contracts/StorageMarketplace.sol",
  "abi": [
    {
      "inputs": [],
      "stateMutability": "nonpayable",
      "type": "constructor"
    },
    {
      "inputs": [],
      "name": "EnforcedPause",
      "type": "error"
    },
    {
      "inputs": [],
      "name": "ExpectedPause",
      "type": "error"
    },
    {
      "inputs": [
        {
          "internalType": "address",
          "name": "owner",
          "type": "address"
        }
      ],
      "name": "OwnableInvalidOwner",
      "type": "error"
    },
    {
      "inputs": [
        {
          "internalType": "address",
          "name": "account",
          "type": "address"
        }
      ],
      "name": "OwnableUnauthorizedAccount",
      "type": "error"
    },
    {
      "inputs": [],
      "name": "ReentrancyGuardReentrantCall",
      "type": "error"
    },
    {
      "anonymous": false,
      "inputs": [
        {
          "indexed": true,
          "internalType": "uint256",
          "name": "dealId",
          "type": "uint256"
        }
      ],
      "name": "DealCancelled",
      "type": "event"
    },
    {
      "anonymous": false,
      "inputs": [
        {
          "indexed": true,
          "internalType": "uint256",
          "name": "dealId",
          "type": "uint256"
        }
      ],
      "name": "DealCompleted",
      "type": "event"
    },
    {
      "anonymous": false,
      "inputs": [
        {
          "indexed": true,
          "internalType": "uint256",
          "name": "dealId",
          "type": "uint256"
        },
        {
          "indexed": true,
          "internalType": "address",
          "name": "provider",
          "type": "address"
        },
        {
          "indexed": true,
          "internalType": "address",
          "name": "renter",
          "type": "address"
        },
        {
          "indexed": false,
          "internalType": "uint256",
          "name": "fileSize",
          "type": "uint256"
        },
        {
          "indexed": false,
          "internalType": "uint256",
          "name": "price",
          "type": "uint256"
        }
      ],
      "name": "DealCreated",
      "type": "event"
    },
    {
      "anonymous": false,
      "inputs": [
        {
          "indexed": true,
          "internalType": "address",
          "name": "previousOwner",
          "type": "address"
        },
        {
          "indexed": true,
          "internalType": "address",
          "name": "newOwner",
          "type": "address"
        }
      ],
      "name": "OwnershipTransferred",
      "type": "event"
    },
    {
      "anonymous": false,
      "inputs": [
        {
          "indexed": false,
          "internalType": "address",
          "name": "account",
          "type": "address"
        }
      ],
      "name": "Paused",
      "type": "event"
    },
    {
      "anonymous": false,
      "inputs": [
        {
          "indexed": true,
          "internalType": "uint256",
          "name": "dealId",
          "type": "uint256"
        },
        {
          "indexed": false,
          "internalType": "string",
          "name": "proofHash",
          "type": "string"
        }
      ],
      "name": "ProofSubmitted",
      "type": "event"
    },
    {
      "anonymous": false,
      "inputs": [
        {
          "indexed": true,
          "internalType": "address",
          "name": "provider",
          "type": "address"
        },
        {
          "indexed": false,
          "internalType": "uint256",
          "name": "capacity",
          "type": "uint256"
        }
      ],
      "name": "ProviderRegistered",
      "type": "event"
    },
    {
      "anonymous": false,
      "inputs": [
        {
          "indexed": false,
          "internalType": "address",
          "name": "account",
          "type": "address"
        }
      ],
      "name": "Unpaused",
      "type": "event"
    },
    {
      "inputs": [],
      "name": "DEAL_ACTIVE",
      "outputs": [
        {
          "internalType": "uint256",
          "name": "",
          "type": "uint256"
        }
      ],
      "stateMutability": "view",
      "type": "function"
    },
    {
      "inputs": [],
      "name": "DEAL_CANCELLED",
      "outputs": [
        {
          "internalType": "uint256",
          "name": "",
          "type": "uint256"
        }
      ],
      "stateMutability": "view",
      "type": "function"
    },
    {
      "inputs": [],
      "name": "DEAL_COMPLETED",
      "outputs": [
        {
          "internalType": "uint256",
          "name": "",
          "type": "uint256"
        }
      ],
      "stateMutability": "view",
      "type": "function"
    },
    {
      "inputs": [],
      "name": "DEAL_PENDING",
      "outputs": [
        {
          "internalType": "uint256",
          "name": "",
          "type": "uint256"
        }
      ],
      "stateMutability": "view",
      "type": "function"
    },
    {
      "inputs": [
        {
          "internalType": "uint256",
          "name": "dealId",
          "type": "uint256"
        }
      ],
      "name": "cancelDeal",
      "outputs": [],
      "stateMutability": "nonpayable",
      "type": "function"
    },
    {
      "inputs": [
        {
          "internalType": "uint256",
          "name": "dealId",
          "type": "uint256"
        }
      ],
      "name": "completeDeal",
      "outputs": [],
      "stateMutability": "nonpayable",
      "type": "function"
    },
    {
      "inputs": [
        {
          "internalType": "address",
          "name": "provider",
          "type": "address"
        },
        {
          "internalType": "uint256",
          "name": "fileSize",
          "type": "uint256"
        },
        {
          "internalType": "uint256",
          "name": "duration",
          "type": "uint256"
        }
      ],
      "name": "createDeal",
      "outputs": [
        {
          "internalType": "uint256",
          "name": "",
          "type": "uint256"
        }
      ],
      "stateMutability": "payable",
      "type": "function"
    },
    {
      "inputs": [],
      "name": "deactivateProvider",
      "outputs": [],
      "stateMutability": "nonpayable",
      "type": "function"
    },
    {
      "inputs": [
        {
          "internalType": "uint256",
          "name": "",
          "type": "uint256"
        }
      ],
      "name": "deals",
      "outputs": [
        {
          "internalType": "uint256",
          "name": "dealId",
          "type": "uint256"
        },
        {
          "internalType": "address",
          "name": "provider",
          "type": "address"
        },
        {
          "internalType": "address",
          "name": "renter",
          "type": "address"
        },
        {
          "internalType": "uint256",
          "name": "fileSize",
          "type": "uint256"
        },
        {
          "internalType": "uint256",
          "name": "pricePerByte",
          "type": "uint256"
        },
        {
          "internalType": "uint256",
          "name": "duration",
          "type": "uint256"
        },
        {
          "internalType": "uint256",
          "name": "startTime",
          "type": "uint256"
        },
        {
          "internalType": "uint256",
          "name": "endTime",
          "type": "uint256"
        },
        {
          "internalType": "bool",
          "name": "isActive",
          "type": "bool"
        },
        {
          "internalType": "bool",
          "name": "isCompleted",
          "type": "bool"
        },
        {
          "internalType": "string",
          "name": "proofHash",
          "type": "string"
        }
      ],
      "stateMutability": "view",
      "type": "function"
    },
    {
      "inputs": [],
      "name": "getActiveProviders",
      "outputs": [
        {
          "internalType": "address[]",
          "name": "",
          "type": "address[]"
        }
      ],
      "stateMutability": "view",
      "type": "function"
    },
    {
      "inputs": [
        {
          "internalType": "address",
          "name": "provider",
          "type": "address"
        }
      ],
      "name": "getProviderDeals",
      "outputs": [
        {
          "internalType": "uint256[]",
          "name": "",
          "type": "uint256[]"
        }
      ],
      "stateMutability": "view",
      "type": "function"
    },
    {
      "inputs": [
        {
          "internalType": "address",
          "name": "user",
          "type": "address"
        }
      ],
      "name": "getUserDeals",
      "outputs": [
        {
          "internalType": "uint256[]",
          "name": "",
          "type": "uint256[]"
        }
      ],
      "stateMutability": "view",
      "type": "function"
    },
    {
      "inputs": [],
      "name": "maxDealDuration",
      "outputs": [
        {
          "internalType": "uint256",
          "name": "",
          "type": "uint256"
        }
      ],
      "stateMutability": "view",
      "type": "function"
    },
    {
      "inputs": [],
      "name": "minDealDuration",
      "outputs": [
        {
          "internalType": "uint256",
          "name": "",
          "type": "uint256"
        }
      ],
      "stateMutability": "view",
      "type": "function"
    },
    {
      "inputs": [],
      "name": "owner",
      "outputs": [
        {
          "internalType": "address",
          "name": "",
          "type": "address"
        }
      ],
      "stateMutability": "view",
      "type": "function"
    },
    {
      "inputs": [],
      "name": "pause",
      "outputs": [],
      "stateMutability": "nonpayable",
      "type": "function"
    },
    {
      "inputs": [],
      "name": "paused",
      "outputs": [
        {
          "internalType": "bool",
          "name": "",
          "type": "bool"
        }
      ],
      "stateMutability": "view",
      "type": "function"
    },
    {
      "inputs": [],
      "name": "platformFee",
      "outputs": [
        {
          "internalType": "uint256",
          "name": "",
          "type": "uint256"
        }
      ],
      "stateMutability": "view",
      "type": "function"
    },
    {
      "inputs": [
        {
          "internalType": "address",
          "name": "",
          "type": "address"
        },
        {
          "internalType": "uint256",
          "name": "",
          "type": "uint256"
        }
      ],
      "name": "providerDeals",
      "outputs": [
        {
          "internalType": "uint256",
          "name": "",
          "type": "uint256"
        }
      ],
      "stateMutability": "view",
      "type": "function"
    },
    {
      "inputs": [
        {
          "internalType": "address",
          "name": "",
          "type": "address"
        }
      ],
      "name": "providers",
      "outputs": [
        {
          "internalType": "address",
          "name": "provider",
          "type": "address"
        },
        {
          "internalType": "uint256",
          "name": "totalCapacity",
          "type": "uint256"
        },
        {
          "internalType": "uint256",
          "name": "usedCapacity",
          "type": "uint256"
        },
        {
          "internalType": "uint256",
          "name": "reputation",
          "type": "uint256"
        },
        {
          "internalType": "bool",
          "name": "isActive",
          "type": "bool"
        },
        {
          "internalType": "string",
          "name": "location",
          "type": "string"
        },
        {
          "internalType": "uint256",
          "name": "pricePerByte",
          "type": "uint256"
        }
      ],
      "stateMutability": "view",
      "type": "function"
    },
    {
      "inputs": [
        {
          "internalType": "uint256",
          "name": "capacity",
          "type": "uint256"
        },
        {
          "internalType": "uint256",
          "name": "pricePerByte",
          "type": "uint256"
        },
        {
          "internalType": "string",
          "name": "location",
          "type": "string"
        }
      ],
      "name": "registerProvider",
      "outputs": [],
      "stateMutability": "nonpayable",
      "type": "function"
    },
    {
      "inputs": [],
      "name": "renounceOwnership",
      "outputs": [],
      "stateMutability": "nonpayable",
      "type": "function"
    },
    {
      "inputs": [
        {
          "internalType": "uint256",
          "name": "dealId",
          "type": "uint256"
        },
        {
          "internalType": "string",
          "name": "proofHash",
          "type": "string"
        }
      ],
      "name": "submitProof",
      "outputs": [],
      "stateMutability": "nonpayable",
      "type": "function"
    },
    {
      "inputs": [
        {
          "internalType": "address",
          "name": "newOwner",
          "type": "address"
        }
      ],
      "name": "transferOwnership",
      "outputs": [],
      "stateMutability": "nonpayable",
      "type": "function"
    },
    {
      "inputs": [],
      "name": "unpause",
      "outputs": [],
      "stateMutability": "nonpayable",
      "type": "function"
    },
    {
      "inputs": [
        {
          "internalType": "uint256",
          "name": "newFee",
          "type": "uint256"
        }
      ],
      "name": "updatePlatformFee",
      "outputs": [],
      "stateMutability": "nonpayable",
      "type": "function"
    },
    {
      "inputs": [
        {
          "internalType": "uint256",
          "name": "newCapacity",
          "type": "uint256"
        }
      ],
      "name": "updateProviderCapacity",
      "outputs": [],
      "stateMutability": "nonpayable",
      "type": "function"
    },
    {
      "inputs": [
        {
          "internalType": "uint256",
          "name": "newPrice",
          "type": "uint256"
        }
      ],
      "name": "updateProviderPrice",
      "outputs": [],
      "stateMutability": "nonpayable",
      "type": "function"
    },
    {
      "inputs": [
        {
          "internalType": "address",
          "name": "",
          "type": "address"
        },
        {
          "internalType": "uint256",
          "name": "",
          "type": "uint256"
        }
      ],
      "name": "userDeals",
      "outputs": [
        {
          "internalType": "uint256",
          "name": "",
          "type": "uint256"
        }
      ],
      "stateMutability": "view",
      "type": "function"
    },
    {
      "inputs": [],
      "name": "withdrawFees",
      "outputs": [],
      "stateMutability": "nonpayable",
      "type": "function"
    }
  ],
  "bytecode": "0x6080604052610e106007556301e1338060085560fa60095534801561002357600080fd5b506001600055338061004f57604051631e4fbdf760e01b81526000600482015260240160405180910390fd5b6100588161005e565b506100b0565b600180546001600160a01b038381166001600160a01b0319831681179093556040519116919082907f8be0079c531659141344cd1fd0a4f28419497f9722a3daafe3b4186f6b6457e090600090a35050565b611f49806100bf6000396000f3fe6080604052600436106101cd5760003560e01c806387ada2c3116100f7578063ce58cfbf11610095578063d7eff19f11610064578063d7eff19f146104f1578063dec3456b14610506578063f2fde38b14610526578063fb0e9ec11461054657600080fd5b8063ce58cfbf14610491578063d3a1c201146104a6578063d3cad2c5146104c6578063d40ab082146104dc57600080fd5b8063a266d7a3116100d1578063a266d7a314610434578063aa0b598814610449578063b02d135114610469578063ce0f504b1461047c57600080fd5b806387ada2c3146103bf5780638da5cb5b146103ec578063a030e8561461041457600080fd5b806331ea1a391161016f578063654152021161013e57806365415202146103555780636b71d31514610375578063715018a6146103955780638456cb59146103aa57600080fd5b806331ea1a39146102e15780633f4ba83a14610301578063476343ee146103165780635c975abb1461032b57600080fd5b8063152897fe116101ab578063152897fe14610267578063190b17121461028b57806326232a2e146102ab5780632af00510146102c157600080fd5b806303988f84146101d25780630787bc27146102125780631506722c14610245575b600080fd5b3480156101de57600080fd5b506101f26101ed366004611982565b610568565b6040516102099b9a999897969594939291906119e1565b60405180910390f35b34801561021e57600080fd5b5061023261022d366004611a72565b610660565b6040516102099796959493929190611a8d565b34801561025157600080fd5b50610265610260366004611b7f565b610735565b005b34801561027357600080fd5b5061027d60085481565b604051908152602001610209565b34801561029757600080fd5b5061027d6102a6366004611bcf565b61092a565b3480156102b757600080fd5b5061027d60095481565b3480156102cd57600080fd5b506102656102dc366004611bf9565b61095b565b3480156102ed57600080fd5b506102656102fc366004611982565b610a6a565b34801561030d57600080fd5b50610265610c14565b34801561032257600080fd5b50610265610c26565b34801561033757600080fd5b50600154600160a01b900460ff166040519015158152602001610209565b34801561036157600080fd5b50610265610370366004611982565b610cb0565b34801561038157600080fd5b5061027d610390366004611bcf565b610d7d565b3480156103a157600080fd5b50610265610d99565b3480156103b657600080fd5b50610265610dab565b3480156103cb57600080fd5b506103df6103da366004611a72565b610dbb565b6040516102099190611c40565b3480156103f857600080fd5b506001546040516001600160a01b039091168152602001610209565b34801561042057600080fd5b506103df61042f366004611a72565b610e27565b34801561044057600080fd5b5061027d600081565b34801561045557600080fd5b50610265610464366004611982565b610e91565b61027d610477366004611c84565b610edf565b34801561048857600080fd5b5061027d600181565b34801561049d57600080fd5b5061027d600281565b3480156104b257600080fd5b506102656104c1366004611982565b6113f5565b3480156104d257600080fd5b5061027d60075481565b3480156104e857600080fd5b506102656114b7565b3480156104fd57600080fd5b5061027d600381565b34801561051257600080fd5b50610265610521366004611982565b611599565b34801561053257600080fd5b50610265610541366004611a72565b61177f565b34801561055257600080fd5b5061055b6117bd565b6040516102099190611cb7565b60036020819052600091825260409091208054600182015460028301549383015460048401546005850154600686015460078701546008880154600989018054989a6001600160a01b039889169a9816989697959694959394929360ff8084169461010090940416929091906105dd90611cf8565b80601f016020809104026020016040519081016040528092919081815260200182805461060990611cf8565b80156106565780601f1061062b57610100808354040283529160200191610656565b820191906000526020600020905b81548152906001019060200180831161063957829003601f168201915b505050505090508b565b60046020819052600091825260409091208054600182015460028301546003840154948401546005850180546001600160a01b03909516969395929460ff90921692916106ac90611cf8565b80601f01602080910402602001604051908101604052809291908181526020018280546106d890611cf8565b80156107255780601f106106fa57610100808354040283529160200191610725565b820191906000526020600020905b81548152906001019060200180831161070857829003601f168201915b5050505050908060060154905087565b6000831161078a5760405162461bcd60e51b815260206004820152601f60248201527f4361706163697479206d7573742062652067726561746572207468616e20300060448201526064015b60405180910390fd5b600082116107da5760405162461bcd60e51b815260206004820152601c60248201527f5072696365206d7573742062652067726561746572207468616e2030000000006044820152606401610781565b336000908152600460208190526040909120015460ff161561083e5760405162461bcd60e51b815260206004820152601b60248201527f50726f766964657220616c7265616479207265676973746572656400000000006044820152606401610781565b6040805160e081018252338082526020808301878152600084860181815260646060870190815260016080880181815260a089018b815260c08a018d905297855260049687905298909320875181546001600160a01b0319166001600160a01b039091161781559351928401929092555160028301555160038201559351908401805460ff19169115159190911790555190919060058201906108e19082611d83565b5060c0919091015160069091015560405183815233907f90c9734131c1e4fb36cde2d71e6feb93fb258f71be8a85411c173d25e1516e80906020015b60405180910390a2505050565b6006602052816000526040600020818154811061094657600080fd5b90600052602060002001600091509150505481565b600082815260036020526040902060018101546001600160a01b031633146109c55760405162461bcd60e51b815260206004820152601e60248201527f4f6e6c792070726f76696465722063616e207375626d69742070726f6f6600006044820152606401610781565b600881015460ff166109e95760405162461bcd60e51b815260040161078190611e43565b42816007015411610a2b5760405162461bcd60e51b815260206004820152600c60248201526b1119585b08195e1c1a5c995960a21b6044820152606401610781565b60098101610a398382611d83565b50827fc577bdeb8da1059fec56a8d1554e25846f18ebf046c214b145cac25f76bda3508360405161091d9190611e6c565b600081815260036020526040902060028101546001600160a01b03163314610acd5760405162461bcd60e51b815260206004820152601660248201527513db9b1e481c995b9d195c8818d85b8818d85b98d95b60521b6044820152606401610781565b600881015460ff16610af15760405162461bcd60e51b815260040161078190611e43565b42816006015411610b3b5760405162461bcd60e51b81526020600482015260146024820152731119585b08185b1c9958591e481cdd185c9d195960621b6044820152606401610781565b60088101805460ff19169055600381015460018201546001600160a01b031660009081526004602052604081206002018054909190610b7b908490611e95565b909155505060058101546004820154600383015460009291610b9c91611eae565b610ba69190611eae565b60028301546040519192506001600160a01b03169082156108fc029083906000818181858888f19350505050158015610be3573d6000803e3d6000fd5b5060405183907f31b0c01e8429f81903c3f8adc204767b8efa7cfca91a00f3b4bb40ce63c8a20690600090a2505050565b610c1c6117ec565b610c24611819565b565b610c2e6117ec565b4780610c725760405162461bcd60e51b81526020600482015260136024820152724e6f206665657320746f20776974686472617760681b6044820152606401610781565b6001546040516001600160a01b039091169082156108fc029083906000818181858888f19350505050158015610cac573d6000803e3d6000fd5b5050565b336000908152600460208190526040909120015460ff16610d0d5760405162461bcd60e51b8152602060048201526017602482015276141c9bdd9a59195c881b9bdd081c9959da5cdd195c9959604a1b6044820152606401610781565b33600090815260046020526040902060020154811015610d685760405162461bcd60e51b815260206004820152601660248201527513995dc818d85c1858da5d1e481d1bdbc81cdb585b1b60521b6044820152606401610781565b33600090815260046020526040902060010155565b6005602052816000526040600020818154811061094657600080fd5b610da16117ec565b610c24600061186e565b610db36117ec565b610c246118c0565b6001600160a01b038116600090815260066020908152604091829020805483518184028101840190945280845260609392830182828015610e1b57602002820191906000526020600020905b815481526020019060010190808311610e07575b50505050509050919050565b6001600160a01b038116600090815260056020908152604091829020805483518184028101840190945280845260609392830182828015610e1b5760200282019190600052602060002090815481526020019060010190808311610e075750505050509050919050565b610e996117ec565b6103e8811115610eda5760405162461bcd60e51b815260206004820152600c60248201526b08ccaca40e8dede40d0d2ced60a31b6044820152606401610781565b600955565b6000610ee9611903565b610ef161192e565b6001600160a01b0384166000908152600460208190526040909120015460ff16610f535760405162461bcd60e51b815260206004820152601360248201527250726f7669646572206e6f742061637469766560681b6044820152606401610781565b60008311610fa35760405162461bcd60e51b815260206004820181905260248201527f46696c652073697a65206d7573742062652067726561746572207468616e20306044820152606401610781565b600754821015610fea5760405162461bcd60e51b8152602060048201526012602482015271111d5c985d1a5bdb881d1bdbc81cda1bdc9d60721b6044820152606401610781565b6008548211156110305760405162461bcd60e51b81526020600482015260116024820152704475726174696f6e20746f6f206c6f6e6760781b6044820152606401610781565b6001600160a01b0384166000908152600460205260409020600181015460029091015461105e908590611ec5565b11156110a45760405162461bcd60e51b8152602060048201526015602482015274496e73756666696369656e7420636170616369747960581b6044820152606401610781565b60028054600091826110b583611ed8565b909155506001600160a01b0386166000908152600460205260408120600601549192509084906110e59087611eae565b6110ef9190611eae565b9050803410156111385760405162461bcd60e51b8152602060048201526014602482015273125b9cdd59999a58da595b9d081c185e5b595b9d60621b6044820152606401610781565b60408051610160810182528381526001600160a01b03881660208083018290523383850152606083018990526000918252600490529190912060060154608082015260a081018590524260c0820181905260e0820190611199908790611ec5565b8152600160208083018290526000604080850182905280518084018252828152606095860152878252600380845291819020865181559286015193830180546001600160a01b039586166001600160a01b031991821617909155908601516002840180549190951691161790925591830151908201556080820151600482015560a0820151600582015560c0820151600682015560e0820151600782015561010080830151600883018054610120860151151590930261ff00199215159290921661ffff1990931692909217179055610140820151600982019061127d9082611d83565b5050506001600160a01b038616600090815260046020526040812060020180548792906112ab908490611ec5565b9091555050336000908152600560209081526040808320805460018181018355918552838520018690556001600160a01b038a1684526006835290832080549182018155835290822001839055600954612710906113099084611eae565b6113139190611ef1565b905060006113218284611e95565b6040519091506001600160a01b0389169082156108fc029083906000818181858888f1935050505015801561135a573d6000803e3d6000fd5b508234111561139b57336108fc6113718534611e95565b6040518115909202916000818181858888f19350505050158015611399573d6000803e3d6000fd5b505b604080518881526020810185905233916001600160a01b038b169187917f584834bba667bf1cd5aa00cfe8042067a3d6b5da7b1a555dc640e003ea7328df910160405180910390a4505060016000555090505b9392505050565b336000908152600460208190526040909120015460ff166114525760405162461bcd60e51b8152602060048201526017602482015276141c9bdd9a59195c881b9bdd081c9959da5cdd195c9959604a1b6044820152606401610781565b600081116114a25760405162461bcd60e51b815260206004820152601c60248201527f5072696365206d7573742062652067726561746572207468616e2030000000006044820152606401610781565b33600090815260046020526040902060060155565b336000908152600460208190526040909120015460ff166115105760405162461bcd60e51b815260206004820152601360248201527250726f7669646572206e6f742061637469766560681b6044820152606401610781565b336000908152600460205260409020600201541561157c5760405162461bcd60e51b815260206004820152602360248201527f43616e6e6f742064656163746976617465207769746820616374697665206465604482015262616c7360e81b6064820152608401610781565b33600090815260046020819052604090912001805460ff19169055565b600081815260036020526040902060028101546001600160a01b03163314806115ce575060018101546001600160a01b031633145b61160b5760405162461bcd60e51b815260206004820152600e60248201526d139bdd08185d5d1a1bdc9a5e995960921b6044820152606401610781565b600881015460ff1661162f5760405162461bcd60e51b815260040161078190611e43565b428160070154111561167a5760405162461bcd60e51b81526020600482015260146024820152731119585b081b9bdd08195e1c1a5c9959081e595d60621b6044820152606401610781565b60088101805461ffff1916610100179055600381015460018201546001600160a01b0316600090815260046020526040812060020180549091906116bf908490611e95565b9250508190555060008160090180546116d790611cf8565b9050111561171a5760018101546001600160a01b031660009081526004602052604081206003018054600a929061170f908490611ec5565b909155506117509050565b60018101546001600160a01b0316600090815260046020526040812060030180546005929061174a908490611e95565b90915550505b60405182907fe70f0403e69c896bbcf61b8ca0224ab04d6de1ade440bc896049efe6fe4e073190600090a25050565b6117876117ec565b6001600160a01b0381166117b157604051631e4fbdf760e01b815260006004820152602401610781565b6117ba8161186e565b50565b604080516064808252610ca08201909252606091600091829160208201610c8080368337019050509392505050565b6001546001600160a01b03163314610c245760405163118cdaa760e01b8152336004820152602401610781565b611821611958565b6001805460ff60a01b191690557f5db9ee0a495bf2e6ff9c91a7834c1ba4fdd244a5e8aa4e537bd38aeae4b073aa335b6040516001600160a01b03909116815260200160405180910390a1565b600180546001600160a01b038381166001600160a01b0319831681179093556040519116919082907f8be0079c531659141344cd1fd0a4f28419497f9722a3daafe3b4186f6b6457e090600090a35050565b6118c8611903565b6001805460ff60a01b1916600160a01b1790557f62e78cea01bee320cd4e420270b5ea74000d11b0c9f74754ebdbfc544b05a2586118513390565b600154600160a01b900460ff1615610c245760405163d93c066560e01b815260040160405180910390fd5b60026000540361195157604051633ee5aeb560e01b815260040160405180910390fd5b6002600055565b600154600160a01b900460ff16610c2457604051638dfc202b60e01b815260040160405180910390fd5b60006020828403121561199457600080fd5b5035919050565b6000815180845260005b818110156119c1576020818501810151868301820152016119a5565b506000602082860101526020601f19601f83011685010191505092915050565b60006101608d835260018060a01b03808e166020850152808d166040850152508a60608401528960808401528860a08401528760c08401528660e084015285151561010084015284151561012084015280610140840152611a448184018561199b565b9e9d5050505050505050505050505050565b80356001600160a01b0381168114611a6d57600080fd5b919050565b600060208284031215611a8457600080fd5b6113ee82611a56565b60018060a01b0388168152866020820152856040820152846060820152831515608082015260e060a08201526000611ac860e083018561199b565b90508260c083015298975050505050505050565b634e487b7160e01b600052604160045260246000fd5b600082601f830112611b0357600080fd5b813567ffffffffffffffff80821115611b1e57611b1e611adc565b604051601f8301601f19908116603f01168101908282118183101715611b4657611b46611adc565b81604052838152866020858801011115611b5f57600080fd5b836020870160208301376000602085830101528094505050505092915050565b600080600060608486031215611b9457600080fd5b8335925060208401359150604084013567ffffffffffffffff811115611bb957600080fd5b611bc586828701611af2565b9150509250925092565b60008060408385031215611be257600080fd5b611beb83611a56565b946020939093013593505050565b60008060408385031215611c0c57600080fd5b82359150602083013567ffffffffffffffff811115611c2a57600080fd5b611c3685828601611af2565b9150509250929050565b6020808252825182820181905260009190848201906040850190845b81811015611c7857835183529284019291840191600101611c5c565b50909695505050505050565b600080600060608486031215611c9957600080fd5b611ca284611a56565b95602085013595506040909401359392505050565b6020808252825182820181905260009190848201906040850190845b81811015611c785783516001600160a01b031683529284019291840191600101611cd3565b600181811c90821680611d0c57607f821691505b602082108103611d2c57634e487b7160e01b600052602260045260246000fd5b50919050565b601f821115611d7e576000816000526020600020601f850160051c81016020861015611d5b5750805b601f850160051c820191505b81811015611d7a57828155600101611d67565b5050505b505050565b815167ffffffffffffffff811115611d9d57611d9d611adc565b611db181611dab8454611cf8565b84611d32565b602080601f831160018114611de65760008415611dce5750858301515b600019600386901b1c1916600185901b178555611d7a565b600085815260208120601f198616915b82811015611e1557888601518255948401946001909101908401611df6565b5085821015611e335787850151600019600388901b60f8161c191681555b5050505050600190811b01905550565b6020808252600f908201526e4465616c206e6f742061637469766560881b604082015260600190565b6020815260006113ee602083018461199b565b634e487b7160e01b600052601160045260246000fd5b81810381811115611ea857611ea8611e7f565b92915050565b8082028115828204841417611ea857611ea8611e7f565b80820180821115611ea857611ea8611e7f565b600060018201611eea57611eea611e7f565b5060010190565b600082611f0e57634e487b7160e01b600052601260045260246000fd5b50049056fea264697066735822122039ed1cc8ee824adde133d8a7c2f166b1871952a3a290e0df32484ec49a1834c964736f6c63430008180033",
  "linkReferences": {},
  "deployedLinkReferences": {}
}